:020000040001F9
:10C00000B84800208DC4010095C4010097C4010008
:10C0100099C401009BC401009DC401000000000000
:10C020000000000000000000000000009FC40100AC
:10C03000A1C4010000000000A3C40100A5C40100C8
:10C04000A7C40100A7C4010019CA0100A7C40100C8
:10C05000A7C40100A7C4010039C50100A7C401009D
:10C06000A7C40100A7C40100A7C40100A7C4010020
:10C07000A7C40100A7C40100A7C40100A7C4010010
:10C08000A7C4010061C70100A7C40100A7C4010043
:10C0900095C70100A7C401009DC70100A7C4010006
:10C0A000A7C40100A7C40100A7C40100A7C40100E0
:10C0B000A7C40100A7C401000000000000000000A8
:10C0C000A7C40100A7C40100A7C40100A7C40100C0
:10C0D000A7C40100A7C40100A7C40100000000001C
:10C0E0000000000000000000000000000000000050
:10C0F0000000000000000000000000000000000040
:10C10000000000000000000000000000000000002F
:10C11000000000000000000000000000000000001F
:10C40000DFF80CD000F086F800480047350602003F
:10C41000B8480020401E00BF00BF00BF00BF00BFE3
:10C4200000BF00BF00BF00BF00BF00BF00BF00BF14
:10C4300000BF00BF00BF00BF00BF00BF00BF00BF04
:10C4400000BF00BF00BF00BF00BF00BF00BF00BFF4
:10C4500000BF00BF00BF00BF00BF00BF00BF00BFE4
:10C4600000BF00BF00BF00BF00BF00BF00BF00BFD4
:10C4700000BF00BF00BF00BF00BF00BF00BF00BFC4
:10C4800000BF00BF00BFC5D170470000064880470D
:10C4900006480047FEE7FEE7FEE7FEE7FEE7FEE7A9
:10C4A000FEE7FEE7FEE7FEE7E5C7010001C4010085
:10C4B00040EA01039B0703D009E008C9121F08C026
:10C4C000042AFAD203E011F8013B00F8013B521EA6
:10C4D000F9D27047D2B201E000F8012B491EFBD21D
:10C4E00070470022F6E710B513460A46044619467F
:10C4F000FFF7F0FF204610BD30B50446002003468C
:10C5000000E05B1C934203D2E05CCD5C401BF8D0A2
:10C5100030BD0000064C074D06E0E06840F0010326
:10C5200094E8070098471034AC42F6D3FFF76CFF4D
:10C530008C290200AC2902002DE9F04F87B00027BA
:10C54000BA464FF4807006900125002412E0069848
:10C5500004F0CAFA40B100BF60480068284018B132
:10C56000069804F0B3FA2F436D000698001D80B2C0
:10C570000690641C082CEAD34FF4BE7004F0B4FAA1
:10C5800048B14FF4BE7004F0A1FA47F0004700BF75
:10C59000534800688246F8B2F8B1012500241AE039
:10C5A00005EA0700A8B100BF4E4850F82400C0F3C8
:10C5B0000420064600BF4B4850F82400C0F3014059
:10C5C0008046204601F064FF814641463046C84718
:10C5D00000BF6D00641C082CE2D307F00040002867
:10C5E00079D04FF0000B00200590401E049000BF52
:10C5F0004FF0000B002457E03B48005D0390039888
:10C6000020F0C00638480057401C00284BD00120BD
:10C61000B04004990840002845D003984FEA90198B
:10C62000304601F07DFF804601F032FF0290029813
:10C6300010B9B9F1030F35D1012000FA06F5B9F1AF
:10C64000030F02D105982843059000BF274850F8F2
:10C650002600C0F3014800BF05EA0A0010B1B8F196
:10C66000020F05D005EA0A00D8B9B8F1030F18D1B6
:10C67000B9F1030F0FD1B8F1020F01D1032000E08F
:10C68000022001903046019904F008FA0BF10100F4
:10C6900000F0FF0B00BF029818B149463046029ADD
:10C6A000904700BF00BF641C042CA5D3BBF1000F52
:10C6B0000DD000BF0A4909680846504503D14FF024
:10C6C000000B03E007E082460599049100BFBBF12F
:10C6D000000F8DD100BF07B0BDE8F08F04630040AC
:10C6E000100500501065004004270020000700508E
:10C6F00000F01F0201219140024A430942F8231031
:10C700007047000080E200E000F01F02012191402C
:10C710004209920002F1E022C2F8001170470000C5
:10C7200000F01F0201219140024A430942F8231000
:10C730007047000000E200E010B5002807DA4A0761
:10C74000140E054A00F00F031B1FD45403E04A07E0
:10C75000130E024A135410BD18ED00E000E400E08F
:10C7600010B500200949086000210948C0F84411AB
:10C77000C0F84811C0F84C1100200549C1F800016B
:10C7800002493C39086005F0CDFC10BD4011014064
:10C790000010014010B505F0C3FB10BD70B50B488B
:10C7A000006880B1094800688047044600BF2546FC
:10C7B0003DB100BF064A4FF4B371284600F02BFB91
:10C7C00000BF00BF01E003F057FD70BD58210020FD
:10C7D0003429020001480249086070470090D003E4
:10C7E0007021002010B503F097F910B17D487E4903
:10C7F000486703F0A9F928B17C480068C0F34230CB
:10C800007B49086003F0CAF928B17A48006820F033
:10C8100080707849086003F0D9F948B10020764962
:10C8200008604FF08041C1F810017149091F08608C
:10C8300003F0F6F918B103206D496431086003F084
:10C8400007FA68B105206D49086001206B4978310D
:10C85000086000206949083108603F20091F08600E
:10C8600003F00EFA002855D0654800686549086055
:10C870006348001D0068091D0860614808300068B1
:10C88000091D08605E480C300068091D08605C489E
:10C8900010300068091D0860594814300068091DEF
:10C8A00008605748183000685649203108605448DD
:10C8B0001C300068091D0860514820300068091DBF
:10C8C00008604F4824300068091D08604C48283033
:10C8D0000068091D08604A482C300068091D08607E
:10C8E0004748303000684749403108604448343098
:10C8F0000068091D0860424838300068091D08605A
:10C900003F483C300068091D08603D4840300068E1
:10C91000091D086037487438006840F470003549D4
:10C920007439086000BF00BF00BFBFF34F8F00BF66
:10C9300000BF00BF00BF00BF00BFBFF36F8F00BFCD
:10C9400000BF00BF3048006800F0004030B92E48FA
:10C95000001D006800F00040002840D001202B4955
:10C96000086000BF2A4800680028FBD0152026492F
:10C97000086000BF264800680028FBD01521224827
:10C98000001D016000BF224800680028FBD0002085
:10C990001E49086000BF1E4800680028FBD000BF89
:10C9A00000BF00BF00BF00BFBFF34F8F00BF00BF7D
:10C9B00000BF1048F038006800F4E06015490843F3
:10C9C000001D0C49F039086000BF00BF00BFBFF375
:10C9D0004F8F00BF00BF00BF00BF00BFFDE7FFF7E4
:10C9E000F9FE10BD0DF0ADBA00C0074044020010C2
:10C9F0003C050040FCED00E00C01004010560040FA
:10CA00000404001020C500400012001004E501409D
:10CA100000E401400000FA0510B50448007F10B1A1
:10CA200005F01EFD01E005F06BFC10BD0C27002099
:10CA300002E008C8121F08C1002AFAD170477047E7
:10CA4000002001E001C1121F002AFBD170472DE92F
:10CA5000FC41044688461646002537880020308071
:10CA6000606B68B1616B08783B463246414604F022
:10CA7000E7FE054600BF15B12846BDE8FC8100BFB2
:10CA8000206B58B13B4632464146206B05F0C6FB51
:10CA9000054600BF0DB12846EFE700BF94F82E0011
:10CAA00060B194F82E003B463246414603F0AAFCA2
:10CAB000054600BF0DB12846DFE700BF94F82D0002
:10CAC00050B13A463146404600F0B5FE054600BF3B
:10CAD0000DB12846D1E700BFA07850B13A463146A3
:10CAE000404600F0E9FA054600BF0DB12846C4E70C
:10CAF00000BFE07860B1E17848B23B46324641463B
:10CB000003F002F9054600BF0DB12846B5E700BFA6
:10CB1000606868B1616891F900003B463246414661
:10CB200005F0D2FB054600BF0DB12846A5E700BFC2
:10CB3000208900280EDD43460622022104F1080068
:10CB4000CDE9006705F0C4FD054600BF0DB12846DC
:10CB500093E700BF208A00280EDD43460722032109
:10CB600004F11000CDE9006705F0B2FD054600BFF5
:10CB70000DB1284681E700BF208B00280EDD43461B
:10CB80001522142104F11800CDE9006705F0A0FD7D
:10CB9000054600BF0DB128466FE700BF206A58B1B7
:10CBA0003B4632464146206A01F0A9FE054600BFD9
:10CBB0000DB1284661E700BF606A58B13B46324676
:10CBC0004146606A03F078FD054600BF0DB1284676
:10CBD00053E700BF94F82C0000280BDD3B4632469B
:10CBE0004146204604F047FE054600BF0DB12846E9
:10CBF00043E700BF207858B13B46324641462046C5
:10CC000003F095FD054600BF0DB1284635E700BF8E
:10CC1000284632E70146C87800F0040008B907202A
:10CC200070470020FCE710B501220221002001F02E
:10CC300041F8044600BF1CB1072C01D0204610BDAE
:10CC400000BF07220221012001F034F8044600BF92
:10CC50001CB1072C01D02046F1E700BF0A220021B9
:10CC6000084601F027F8044600BF1CB1072C01D08C
:10CC70002046E4E700BF0020E1E7000030B5A7B0A0
:10CC8000382119A8FFF72DFC02208DF8640006203A
:10CC90008DF86700242110A8FFF723FC01208DF8F0
:10CCA0004C004FF496701490B4201590382102A8CF
:10CCB000FFF717FC0120ADF818000C490791002080
:10CCC0000B4B10AA02A9009019A800F075FA0446AF
:10CCD00000BF25463DB100BF06A24FF4EB712846C8
:10CCE00000F099F800BF00BF27B030BD84200020BD
:10CCF000750B02002E2E5C2E2E5C2E2E5C6D616953
:10CD00006E2E6300014600BF064A10684FF40022F1
:10CD10008243044B1B1D1A6000F400221B1D1A6085
:10CD200000BF70470405005010B5002407E0074914
:10CD3000096811F83400012103F094FD641C0448D3
:10CD400000788442F3D3002010BD00002021002091
:10CD5000242100202DE9F84306460C461746052FEE
:10CD600002D20720BDE8F88303F07CFE38B903F057
:10CD70004FFE054600BF0DB12846F3E700BF164839
:10CD800006601648047016480760002015490860C0
:10CD90001549086015E006EBC408144800680090C7
:10CDA00098F802008DF8010098F80000104A6946D2
:10CDB00003F0B4FD054600BF0DB12846D2E700BF21
:10CDC00000BF201EA4F10101CCB2E4D1094A002128
:10CDD000094800F0B1F8C5E72021002024210020F7
:10CDE000282100202C21002030210020E4280200EE
:10CDF000910102000DEC0100E028020070B504462C
:10CE00000D4616460C2000F083FF32462946204688
:10CE100000F012F870BDFEB504460E461546B0B2DD
:10CE2000ADF80000019502946A46002144F2010029
:10CE3000FFF7E4FFFEBD000018B5012300939DF845
:10CE400000301E4B186059609A606FF480430344B1
:10CE500063B1012B19D1194BDA60DB681B88174CC1
:10CE6000A3612346DB685B68E3610EE0134B1A6144
:10CE70001B699B68114C636123461B691B88A36176
:10CE800023461B695B68E36100BF00BF0B4B1B6857
:10CE90000A4B5B68094B9B68084BDB68074B1B69B7
:10CEA000064B5B69054B9B69044BDB6972B600BF9F
:10CEB0009DF80030002BFBD162B618BD3028002051
:10CEC0002DE9F04104460D461646044807683246EF
:10CED00029462046B847BDE8F08100009026002092
:10CEE000F8B505460C462778A06800EB40000649D7
:10CEF00051F820600548006800902A46394604F140
:10CF000008002369B047F8BDF82700201821002049
:10CF100010B504460748007800EB80020548001D64
:10CF200000EB82012046FFF7DBFF042004F02AFD1E
:10CF300010BD00002C27002010B503460C4600BF92
:10CF40000B48006808B9082010BD00BF0AB90720C7
:10CF5000FAE70BB90720F7E71868007C08B108204A
:10CF6000F2E71968002008744C744A6100BFEBE7CF
:10CF7000382100202DE9F04180460E4614461F4618
:10CF8000204600F0030109B9012100E0002111B998
:10CF90000720BDE8F08124B900201D490860072062
:10CFA000F7E704F071FB1B48076003201A4908707B
:10CFB00017480460183400250DE01549096801EB95
:10CFC000C5000021017041708670446006EB460187
:10CFD00004EBC1046D1C032DEFDB00200F4908603A
:10CFE0000F4908700F4908701420FFF781FB0621D4
:10CFF0001420FFF7A1FB1420FFF786FB404604F046
:10D0000019FB04F011FB084908600020C1E700008B
:10D010003821002050210020342100203C21002014
:10D020004C2100204D210020402100202DE9F84313
:10D0300004460D461746264600BF1148006810B941
:10D040000820BDE8F88300BF0CB90820F9E7052DDA
:10D0500001D20720F5E7706908B90820F1E7707C74
:10D06000012801D1284600E00020804605F0EAFAB8
:10D07000814643462A463146009704F0EBFFE0E73D
:10D080003821002070B50446254600BF09480068D5
:10D0900008B9082070BD00BF0CB1686908B9082044
:10D0A000F8E70020287405F0CDFA0646294604F07A
:10D0B000FFFFEFE738210020F8B505460C4617467C
:10D0C0002088001DB84201D90C20F8BD684679DFE0
:10D0D000064600BF0EB13046F7E700BF03202188A7
:10D0E00068542088401C208019202188685420889A
:10D0F000401C208020884119BDF8000005F046FA48
:10D100002188084420800020DFE7000010B50022BD
:10D110004FF4004102480068FFF788FF10BD00008F
:10D120000C2802002DE9F04192B080460D461F20E8
:10D1300011901090B8F1000F17D04046FFF76AFD2C
:10D14000044600BF1CB1204612B0BDE8F08100BF0C
:10D1500011AA08A94046FFF77AFC044600BF0CB1AB
:10D160002046F1E700BF08AE02E000260020119043
:10D17000ADB1284604F088FC044600BF0CB120463F
:10D18000E2E700BF10AA69462846FFF760FC0446A4
:10D1900000BF0CB12046D7E700BF6F4602E0002772
:10D1A00000201090BDF84000C3B2BDF84400C1B2E9
:10D1B0003A46304672DFC7E72DE9F04704460F468E
:10D1C00015461E46DDF8208000BF14B90E20BDE8CC
:10D1D000F08700BF00BF0DB90E20F8E700BF0020A8
:10D1E00046490870464806604648C0F80080242238
:10D1F00029464548FFF75CF900F03EF943484449A9
:10D2000008604448886038214348FFF76AF920786D
:10D2100041490870A0788870E078C87060784870DC
:10D220000846D4E90412C0E90412D4E90212C0E9A4
:10D230000212D4E90612C0E90612606AD8B1374872
:10D240003549486236498160606A00883249496AD6
:10D250000880606A80883049496A8880002005E03B
:10D26000616A8968095C2E4A1154401C2A49496A3E
:10D2700089888142F4D8A06A20B32A492A4881606B
:10D280002549886227492448806A8160A06A80888D
:10D290002149896A8880A06A00881F49896A0880B4
:10D2A000002005E0A16A8968095C1E4A1154401CEF
:10D2B0001949896A89888142F4D894F82C00164962
:10D2C00081F82C00206A58B1184813490862206A76
:10D2D0004088096A4880206A00880F49096A0880E6
:10D2E000606820B112480C4948606068486039465F
:10D2F0000948FFF717FF8146484668E7C02000202D
:10D30000B8200020BC2000205C24002090240020B5
:10D3100080240020B024002024240020D0240020D9
:10D32000DC24002008250020FC240020C42000204C
:10D33000C820002070B504462088102804D0112889
:10D3400009D01B2863D11BE0A07D012802D1A08851
:10D35000304908805CE000202F490870A0882D49E2
:10D36000098888420BD1012000F0CAF8054635B182
:10D370002A48006818B1284628490968884747E0C4
:10D38000207A002842D126480078012806D00228B9
:10D3900011D003281CD0042836D129E0022000F047
:10D3A000AFF8054635B11D48006818B128461B493D
:10D3B0000968884729E0032000F0A2F8054635B146
:10D3C0001648006818B128461449096888471CE0C7
:10D3D000032014490870042000F092F8054635B186
:10D3E0000E48006818B128460C49096888470CE0C7
:10D3F00000200C4908700C48006820B108460078ED
:10D4000009490968884700E000BF00BF00E000BF8D
:10D4100000BF70BDCA200020C1200020BC20002019
:10D42000C0200020B4200020B820002070B50446A1
:10D430000025022C02D0032C15D100E000BF0B48C0
:10D44000007878B10020094908700948007800F098
:10D4500057F8054635B10748006818B12846054910
:10D460000968884700E000BF00BF70BDAC20002005
:10D47000C0200020BC2000200248002101608180E3
:10D4800081717047AD20002010B518480078012840
:10D4900029D11748007830BB1648007830B174DFC6
:10D4A000044600BF0CB1204610BD00BF012010494A
:10D4B000087006201049C87000210F48FFF732FE9F
:10D4C000044600BF0CB12046EEE700BF09480078D3
:10D4D00000F016F8044634B10848006818B1204638
:10D4E0000649096888470020DEE700005C24002028
:10D4F000C1200020C020002024240020BC200020C7
:10D5000030B587B005469548057002F018FC28B183
:10D51000012093490870002007B030BDFFF7ACFF31
:10D520009048407818B18D48007801280DD08D487A
:10D53000807818B189480078012806D08948807819
:10D5400088B18648007802280DD18748006838B134
:10D55000012086490870082083490968884702E04D
:10D560000020824908707D480078012809D17D4853
:10D57000407818B17E4803F075FC10B90220774955
:10D58000087076480078022809D17648807818B16A
:10D59000774803F067FC10B90320704908707148A0
:10D5A000007B30B96D480078032802D104206B4914
:10D5B00008706C48007E40B968480078042804D19F
:10D5C0000020664908706B49087067480068A8B178
:10D5D00062480078032803D06048007804280DD101
:10D5E0006048007850B16448007838B90120634938
:10D5F000087007205C490968884702E000205F49FD
:10D600000870182101A8FEF76CFF00208DF80400B7
:10D6100002908DF80C00049050480078012806D044
:10D62000022813D0032825D0042876D150E0504892
:10D63000401E029001208DF804000020ADF8160075
:10D64000ADF8140001204B49087071E04848401EB5
:10D65000029001208DF804004248008980B2ADF8A4
:10D6600016004048808880B2ADF81400022041497D
:10D6700008705DE03B48808A80B2ADF816003948FA
:10D68000008A80B2ADF814003D4805F0B6F8D8B174
:10D6900034480078C0B138480078A8B902208DF825
:10D6A0000C003748049004203649C87000213548E2
:10D6B000FFF738FD044600BF0CB120462CE700BF41
:10D6C00005202C49087002E003202A4908702FE049
:10D6D0002448808B80B2ADF814002248008C80B2C0
:10D6E000ADF81600264805F088F8E0B11D4800782E
:10D6F000C8B121480078B0B902208DF80C0020484C
:10D70000049004201F49C87000211E48FFF70AFD3D
:10D71000044600BF14B12046FEE608E000BF062024
:10D720001449087002E004201249087000E000BFAC
:10D7300000BF0A48007838B101A873DF044600BF73
:10D740000CB12046E8E600BF0748006820B1094850
:10D7500000780549096888470020DDE6C0200020E0
:10D76000AC2000205C240020B8200020C320002032
:10D77000AE200020B4200020C1200020C2200020C4
:10D78000802400202424002070B505461C22294650
:10D790001248FEF78DFE002011490870286850B12C
:10D7A000104829680A680260496841607ADF0446C7
:10D7B0003CB1204670BD0B487BDF04460CB12046CF
:10D7C000F8E74FF6FF700849088000200749087005
:10D7D000074A00210748FFF7AFFBEBE728250020A9
:10D7E000E0200020CC200020D6200020D4200020E3
:10D7F000B52502008028020010B5044620881028B4
:10D8000006D0112808D012280ED0502810D107E0D9
:10D81000204603F02DFA0CE0204603F045FA08E01C
:10D82000204603F061FA04E0204603F015FA00E018
:10D8300000BF00BF10BD2DE9FC4105460C46174650
:10D8400020880930B84202D90C20BDE8FC81684626
:10D8500071DF064600BF0EB13046F6E700BF082074
:10D86000218868542088401C20801B20218868540F
:10D870002088401C208020882844DDF801100160A9
:10D88000BDF8051081802088801D20809DF8000053
:10D8900018B900202188685402E0012021886854CA
:10D8A0002088401C20800020CFE7000010B50446EF
:10D8B000204601F06DFB2046FFF79EFF204600F05A
:10D8C000E7F8204603F07AF92046FFF733FD2146BA
:10D8D000014800F003F810BD742100200A88102AC6
:10D8E00002D0112A07D102E08A88028004E04FF6B4
:10D8F000FF72028000E000BF00BF704770B586B0C5
:10D9000038480068059000BF00234822364905A822
:10D9100004F07CF8054600BF2E463EB100BF33A29E
:10D920004FF4A4713046FFF776FA00BF00BF00BF86
:10D930006A460121002004F049F8044600BF25464C
:10D940003DB100BF29A24FF4A7712846FFF763FA43
:10D9500000BF00BF00BF294E304603F0FBFE044667
:10D9600000BF25463DB100BF20A240F2511128461C
:10D97000FFF751FA00BF00BF00BF01208DF80C0077
:10D98000684604F015F8044600BF25463DB100BFC7
:10D9900016A24FF4AB712846FFF73DFA00BF00BF57
:10D9A000174803F0F9FF044600BF25463DB100BF0C
:10D9B0000EA24FF4AD712846FFF72DFA00BF00BF4D
:10D9C000104804F055F8044600BF25463DB100BF9D
:10D9D00006A24FF4AF712846FFF71DFA00BF00BF43
:10D9E00006B070BD10280200702300202E2E5C2E81
:10D9F0002E5C2E2E5C6D61696E2E6300E81F002088
:10DA0000ADD80100211E02007CB50446A1786A460B
:10DA10000D4803F0C3FA0546ADB96178C1EBC10109
:10DA20000A4A02EB81001C231A46694603F0F4FB04
:10DA300005460748807A074951F820202146684664
:10DA40009047054600BF7CBDE4200020442600200E
:10DA5000902600209428020070B505460C4600264A
:10DA60000948056044B1204604F015F8064600BF99
:10DA70000EB1304670BD00BF0448006810B9FFF712
:10DA8000D2F806463046F5E7A4200020A820002062
:10DA900070B505462888102802D011282CD115E031
:10DAA0001748006860B900F0EBFF044600BF34B1CE
:10DAB0001448006818B1204612490968884700BF19
:10DAC0000F480068401C0E49086016E00C480068CA
:10DAD000401E0B4908600846006860B9FFF7A3F8CC
:10DAE000044600BF34B10748006818B12046054914
:10DAF0000968884700BF00E000BF00BF70BD00009C
:10DB0000A8200020A420002010B5032000F046FC2F
:10DB1000044600BF1CB1062C01D0204610BD00BF3A
:10DB20000020FBE72DE9F04105460F464FF00008C5
:10DB3000002400E0641C042C04D22A4850F824007D
:10DB4000A842F7D1042C41D227B3012F02D0022FD3
:10DB50003BD133E004EB4400234911F8008004EB8F
:10DB600044000844407868B12048006800EB800019
:10DB700041001F4A1F480068FFF758FA06460EB9D1
:10DB80001B48057004EB44001749084480781A4983
:10DB900008551AE017480068FFF774FA1648005D48
:10DBA00004EB4401104A11448978884205D104EB02
:10DBB00044001146084490F8028006E004EB44005B
:10DBC0000949084490F8018000BF00BFB8F1000F78
:10DBD00006D00A48006818B14046084909688847D5
:10DBE000BDE8F08150280200F82300208C2000209E
:10DBF0009C2000204C2802009D200020982000201E
:10DC000010B50246042A0ED2094B1B68D843094BB3
:10DC100013F822400123A34003400BB1012300E08D
:10DC200000230B7001E000200870002010BD0000F0
:10DC3000100500505028020070B50546042D06D08E
:10DC4000072D18D00A2D28D103F068FE26E01321F5
:10DC50001348008876DF0446082C0BD000BF264608
:10DC60003EB100BF0FA240F273113046FFF7D3F868
:10DC700000BF00BF12E0FFF707FC0446082C0BD0E2
:10DC800000BF26463EB100BF06A240F27B113046DF
:10DC9000FFF7C1F800BF00BF00E000BF00BF70BDCC
:10DCA000822000202E2E5C2E2E5C2E2E5C6D616953
:10DCB0006E2E630030B503460020042B23D2012AC8
:10DCC00007D1012903D103F10D04E4B200E00024DF
:10DCD000224679B1012902D0022911D104E003EBD7
:10DCE00043040A4D2A550DE003EB4304074D2C4431
:10DCF000627007E003EB4304044D2C44A27001E082
:10DD0000072000BF00E0072030BD0000F8230020FE
:10DD100070B5044600250548007800F0010018B1F0
:10DD2000204600F06DF80546284670BD9020002082
:10DD30002DE9F04105460E46904600242548066030
:10DD4000254805602548C0F8008005F00200F8B1BC
:10DD5000002706E0012211463846FFF7ABFF0446D4
:10DD60007F1C042F01D2002CF4D02CB9720804219E
:10DD70001B48FEF7EFFF044614B9FEF7D5FF044633
:10DD80002CB9184A00211848FFF7D6F8044600BFFE
:10DD900005F0010068B100BF4FF4F01013490860AE
:10DDA0000020091D086000BF4FF4F0100F4910312A
:10DDB00008602CB90E4A00210E48FFF7BDF8044652
:10DDC0002CB90D4A01210D48FFF7B6F8044620464C
:10DDD000BDE8F0818C2000209020002098200020B9
:10DDE00060280200EDE301004C2802000805005005
:10DDF000710402004428020005CD010048280200F9
:10DE00002DE9F041044600260025182C7DD2DFE8DC
:10DE100004F00C1D1E68B4EEEDECEBEAE9E8E7E671
:10DE2000E5E4E3E2E1E0DFDEDDDC00BFFD480168C0
:10DE30004FF4F010884300F4F010FB490860002014
:10DE4000091D086000BFF948047098E200BF00BFD8
:10DE5000F44801684FF4E010884300F4F010F249F0
:10DE600008600020091D086000BFEF48001F00681F
:10DE700080F4F01000F4003088B100BF4FF400309F
:10DE8000091F08600020091D086000BF022C02D194
:10DE90004FF4E16001E04FF47A60054610E000BF06
:10DEA0004FF40030E049091D08600020091F086098
:10DEB00000BF022C01D1C82001E04FF4C870054614
:10DEC000DA4804706420B5FBF0F0D949096800FB1A
:10DED00001F700223946D7480068FFF7A7F8064641
:10DEE0004DE200BFCF4801684FF4E010884300F4D2
:10DEF000F010CD4908600020091D086000BFCA4825
:10DF0000001F006880F4F01000E037E200F40030F9
:10DF100088B100BF4FF40030091F08600020091DC0
:10DF2000086000BF032C02D14FF4487001E04FF4A9
:10DF30007A60054610E000BF4FF40030BA49091D71
:10DF400008600020091F086000BF032C01D1C82011
:10DF500001E04FF4C8700546B44804706420B5FB76
:10DF6000F0F0B349096800FB01F700223946B148D7
:10DF70000068FFF75BF8064601E200BFA9480168A8
:10DF80004FF4E010884300F4F010A7490860002027
:10DF9000091D086000BFA448001F006880F4F0104D
:10DFA00000F4003020B300BF4FF40030091F0860B8
:10DFB0000020091D086000BF042C02D14FF47A60D4
:10DFC00001E04FF47A60054624E0CBE1C9E1B3E11A
:10DFD0009DE187E179E13FE13DE13BE139E137E175
:10DFE0002AE105E1EDE0D3E0BBE0A1E06CE022E056
:10DFF00000BF4FF400308C49091D08600020091F44
:10E00000086000BF042C02D14FF4C87001E04FF447
:10E01000C8700546854804706420B5FBF0F084495B
:10E02000096800FB01F70022394682480068FEF7C4
:10E03000FDFF0646A3E100BF7A4801684FF4E010F7
:10E04000884300F4F010784908600020091D08603A
:10E0500000BF7548001F006880F4F01000F4003025
:10E0600080B100BF4FF40030091F08600020091D77
:10E07000086000BF052C01D1C82001E04FF47A6090
:10E08000054610E000BF4FF400306749091D0860E5
:10E090000020091F086000BF052C01D1C82001E045
:10E0A0004FF4C8700546614804706420B5FBF0F079
:10E0B0005F49096800FB01F7002239465D480068A6
:10E0C000FEF7B4FF06465AE100BF564801684FF418
:10E0D000E010884300F4F010534908600020091D47
:10E0E000086000BF5048001F006880F4F01000F482
:10E0F000003040B100BF4FF40030091F086000201D
:10E10000091D086009E000BF4FF400304649091DB1
:10E1100008600020091F086000BF4448047044489C
:10E120000022016843480068FEF780FF064626E1AA
:10E1300000BF3C4801684FF4E010884300F4F01041
:10E14000394908600020091D086000BF00BF4FF476
:10E15000003008600020091F086000BF33480470C9
:10E160000DE100BF3049091F08684FF48021814349
:10E170002D4A116000F48021121D116000BF2C484F
:10E18000002201682B480068FEF750FF0646F6E0C3
:10E1900000BF2549091F08684FF480218143224AA6
:10E1A000116000F48021121D116000BF204800683A
:10E1B00000EB800100221F480068FEF737FF06468B
:10E1C000DDE000BF1849091F08684FF48021814332
:10E1D000154A116000F48021121D116000BF14481F
:10E1E0000022016813480068FEF720FF0646C6E0DB
:10E1F00000BF0D49091F08684FF4802181430A4A76
:10E20000116000F48021121D116000BF08480068F1
:10E2100000EB8001002207480068FEF707FF064672
:10E22000ADE0000094200020080500508820002068
:10E230008C2000204428020000BF4FF4F010524907
:10E2400008600020091F086000BF5048047096E075
:10E2500000BF00BF00BF00BF4D480068FEF712FFBF
:10E260000646C4F111050DB306BB4FF40020494921
:10E270000860012D0FD9C82068436421B0FBF1F07C
:10E280004549096800FB01F700223946404800680B
:10E29000FEF7CCFE064600BF3E48006800F4F010D2
:10E2A000394908600020091F08600DE000BF3948A7
:10E2B000006800F4F0103449091F08600020091DAF
:10E2C000086000BF3349086059E000BF4FF4F01008
:10E2D0002D49091F08600020091D086000BF2B4858
:10E2E00004704CE000BF4FF4E0102749091F08609C
:10E2F0000020091D086000BF00BF4FF40030086017
:10E300000020091F086000BF2048047037E000BFEC
:10E310004FF4D0101C49091F08600020091D086037
:10E3200000BF00BF4FF4802008600020091F086074
:10E3300000BF1648047022E000BF4FF4C01012491D
:10E34000091F08600020091D086000BF00BF4FF4CE
:10E35000C02008600020091F086000BF0B4804703F
:10E360000DE000BF00BF4FF4F01007490860002027
:10E37000091F086000BF0548047000E000BF00BF2F
:10E380003046BDE8F08100000C05005088200020D8
:10E3900048280200942000208C20002030B502463E
:10E3A00000201AE00F4C54F82040A40004F1A044CF
:10E3B000D4F800170124844014400CB1032400E079
:10E3C0000024234621F4403141EA0341064C054D27
:10E3D00055F8205044F82510401C0428E2D30020B2
:10E3E00030BD0000502802000007005010B5044660
:10E3F00020780221FFF796FB10BD0000F8B5054616
:10E40000164A40F6CD410320FFF792FC044600BFB8
:10E4100026463EB100BF12A240F2E5113046FEF79B
:10E42000FAFC00BF00BF69460020FFF715FB044659
:10E4300000BF26463EB100BF09A24FF4F47130463A
:10E44000FEF7E9FC00BF00BF9DF80000022801D1E3
:10E45000012000E000202870F8BD000039DC010038
:10E460002E2E5C2E2E5C2E2E5C6D61696E2E63004E
:10E470004FF0FF31054A42F82010082804DBFF2343
:10E48000A0F108015032535470470000B426002018
:10E490000146024850F8210070470000B4260020D1
:10E4A0002DE9F04F03460C464FF0FF390AB100202A
:10E4B00000E0082084460AB1082000E00C208046D5
:10E4C000614624E0154850F82100401CF0B91D4673
:10E4D0000846274616464FFA80FBDFF840A00AF1AF
:10E4E000300A0AF805B0DFF834A04AF820704EB9B7
:10E4F0004FFA85FBA0F1080ADFF820E00EF1500E7C
:10E500000EF80AB000BF4FFA81F902E0491C4145FC
:10E51000D8D300BF4846BDE8F08F0000B4260020E5
:10E520000146014840567047E42600202DE9F84F87
:10E530003A48007800EB80013848001D00EB810468
:10E54000E668A06800EB4000354901EB8000B0F8B8
:10E550000890A06800EB400001EB8000B0F80AA032
:10E56000A06800EB400001EB80004068009002F0E2
:10E5700006FEB6FBF0F100FB116008B9012000E0D7
:10E5800000208046009809FB0A0760883044A18873
:10E590004518002023490860B8F1000F04D002F0AC
:10E5A000EEFD6188884209D0B8F1000F03D0BD426A
:10E5B00001D1A08810B1A068032809D102F0DFFDC5
:10E5C000B6FBF0F018490860032003F0DBF922E005
:10E5D00002F0D5FDA1883144B1FBF0F200FB12102E
:10E5E00080081249086002F0CAFDB5FBF0F100FB9B
:10E5F000115008B9012000E000208346BD4206D03A
:10E60000BBF1000F03D1B9B2A8B203F021FC022084
:10E6100003F0B8F900BFBDE8F88F00002C270020F8
:10E62000F8270020082100200C21002004210020D0
:10E6300010B50848007800EB80010648001D00EB8B
:10E6400081042078042802D000F0BAF801E003F039
:10E6500077FB10BD2C27002010B50F48007800EB89
:10E6600080010D48001D00EB810460880B490860A3
:10E670002078012804D0032805D0042809D105E01A
:10E6800003F05EFB06E0FFF751FF03E003F084FFB9
:10E6900000E000BF00BF10BD2C2700201821002083
:10E6A00010B50348407808B1FFF7D6FF10BD000051
:10E6B0002C270020002200EB8003114901F82320C1
:10E6C00000EB800301EB83014A80022200EB800310
:10E6D0000B4901EB83018A60002200EB80030849AB
:10E6E00001EB8301CA6000EB8003054901EB830164
:10E6F0000A6100EB8003024901EB83018A807047C5
:10E70000302700202DE9F04706460F4690469946EF
:10E71000DDF820A0204840780A2839D01E4800782B
:10E720001D49497844180A2C00D30A3C04EB8401A3
:10E730001948001D00F8216004EB840100EB810002
:10E74000C0F8108004EB84011348001D00EB810029
:10E75000D7E90012C0E9021204EB84010E48001D43
:10E7600000EB8100A0F8029004EB84010A48001D30
:10E7700000EB8100A0F804A007484078401C06493F
:10E7800048700648007808B9FFF766FF002500E0EA
:10E7900004252846BDE8F0872C2700200021002012
:10E7A00010B50020054908704870002403E0204699
:10E7B000FFF780FF641C0A2CF9D310BD2C27002022
:10E7C00010B50848007800EB80020648001D00EBF9
:10E7D00082010020FEF784FB00F006F8002003F021
:10E7E000D1F810BD2C27002010B509490878FFF793
:10E7F00061FF07484078401E054948700846007888
:10E80000401CC0B208700A2801D10020087010BD59
:10E810002C2700202DE9F04782461F480068002879
:10E8200036D01D480068056802F0FEFE07461B480A
:10E8300004682146384603F031FBC61C18480078AE
:10E8400008B902F003FFAE4201D2284600E030468C
:10E85000044424F07F44204602F0E0FE02F0E4FE8F
:10E8600080463946404603F019FB00F1030939465A
:10E87000204603F013FB814509D902F0D5FE8146FD
:10E8800002F0CCFE2F20FDF7C5FD03F097FC01E060
:10E8900002F0FAFEBDE8F0873C2100204021002074
:10E8A0005421002001460888062808DB0888B0F5B6
:10E8B000486F06DD08884FF6FF72904201D00720AE
:10E8C00070474888062808DB4888B0F5486F06DDA1
:10E8D00048884FF6FF72904201D00720F0E7088881
:10E8E0004FF6FF72904208D04888904205D00888C1
:10E8F0004A88904201DD0720E2E70020E0E72DE9A9
:10E90000F04106460D46144698462088801D404535
:10E9100002D90C20BDE8F0813046FFF7C3FF07465F
:10E9200000BF0FB13846F5E700BF052021886854C5
:10E930002088401C20801220218868542088401C98
:10E94000208022885119308803F020FE2188084455
:10E95000208022885119708803F018FE218808440D
:10E9600020800020D6E7000010B5044600BF03A2B7
:10E97000B1212046FEF74FFA00BF10BD2E2E5C2EAF
:10E980002E5C2E2E5C6D61696E2E630030B587B0F3
:10E990001C216846FDF7A5FD002000904FF42030B3
:10E9A00001904FF47020029003208DF80C0000209D
:10E9B000ADF80E008DF810000A4805900A48069040
:10E9C0006846FEF7E1FE044600BF254635B100BFAC
:10E9D00006A2C8212846FEF71EFA00BF00BF07B0F6
:10E9E00030BD0000190C020069E901002E2E5C2EDA
:10E9F0002E5C2E2E5C6D61696E2E630038B51B484F
:10EA000001F092FC20BB1A48007848B119484069CF
:10EA1000E8B100200090174841696846884716E031
:10EA20001548007810B91348456801E01148856819
:10EA30000022294611480068FEF7F8FA044634B16E
:10EA40000C48806918B10B4881692046884709E065
:10EA50000848406930B10120009006484169684685
:10EA6000884700BF00200249087038BDD820002028
:10EA7000E020002028250020D4200020802802004B
:10EA800010B5012200210846FFF714F9044600BF23
:10EA90001CB1072C01D0204610BD00BF0722022167
:10EAA0000120FFF707F9044600BF1CB1072C01D075
:10EAB0002046F1E700BF042202210020FFF7FAF808
:10EAC000044600BF1CB1072C01D02046E4E700BF7C
:10EAD0000020E1E770B503460C460820002117E04E
:10EAE00001EB41050C4E06EB8505AD7A254075B16D
:10EAF0004FF6FF75AB4206D001EB410506EB8505ED
:10EB00002D899D4202D11160002003E00520491C9F
:10EB10000029E5D000BF70BD84260020012100EB54
:10EB200040020D4B03EB820291724FF6FF7100EB36
:10EB3000400203EB82021181FF2100EB400203EB54
:10EB40008202D17200EB40011A4602EB81010022E1
:10EB50000A608A808A7170478426002010B51A489E
:10EB6000007800F0080058BB18480068401C17499E
:10EB700008601748006818B1042003F047F921E045
:10EB800001F0E4FB18B1022003F040F91AE011484B
:10EB9000006890B10C48007800F0010048B90A48BC
:10EBA000006840F0010008490860002003F02EF9D9
:10EBB00008E0032003F02AF904E003F0FBF801E089
:10EBC00003F008F910BD00001C2100200C210020DA
:10EBD000042100200821002010B50B48007800F027
:10EBE000080070B90848007800F0020028B1064813
:10EBF000006840F0010004490860022003F006F9B3
:10EC000001E003F0E7F810BD1C2100202DE9F047DA
:10EC10008146002532E01C48006800EBC5042178DD
:10EC2000012000FA01F619480068304020B3174867
:10EC30000068B04315490860207801F0DBFE074604
:10EC4000217801208840124909680840217807FA94
:10EC500001F188420FD16078012800D100E0002046
:10EC6000784080F00108606820B108F0FF0120784A
:10EC70006268904700BF00BF681CC5B205480078B5
:10EC80008542C8DBBDE8F08720210020302100202C
:10EC90002C210020242100202DE9FC4104460D46B2
:10ECA000A1786A462B4802F079F90746002F4ED129
:10ECB000607800EB4000284901EB8000807A00F08A
:10ECC0004000402801D0022D01D1244E04E0012D46
:10ECD00001D1234E00E0234EA078C0EBC000224AB1
:10ECE00002EB800100231C226846B0470746EFB9BB
:10ECF000022D1BD0607800EB4000174901EB80002B
:10ED0000807A20F04000617801EB4101124A02EB69
:10ED1000810188726078C0EBC000144A02EB800168
:10ED20001C231A466846B047074600BF022D0ED086
:10ED3000207800EB40000E4901EB8000807A0D49FD
:10ED400051F82020214668469047074600BFBDE89D
:10ED5000FC810000E42000208426002041150200F0
:10ED60001D140200D11C0200802500204426002032
:10ED7000902600208428020070B503460A4648F217
:10ED80004300002135E0C1EBC1041C4D05EB8404B8
:10ED9000A47EFF2C2CD11478022C18D0C1EBC10416
:10EDA00005EB8404A47E24F00204C1EBC105134EDC
:10EDB00006EB8505AC76C1EBC104354605EB840452
:10EDC000156825619588A5829579A5750DE0C1EB3B
:10EDD000C1040A4D05EB8404A47E24F00104C1EBB8
:10EDE000C105064E06EB8505AC761970002002E0E1
:10EDF000491C0729C7D300BF70BD00008025002033
:10EE00002DE9F04105460E4617464FF0050800244F
:10EE10001AE03DB9C4EBC4000E4901EB8000008B41
:10EE2000B8420CD07DB1C4EBC4010A4A02EB8101A7
:10EE300001F1100007222946FDF75EFB18B9346086
:10EE40004FF0000802E0641C072CE2D300BF4046EC
:10EE5000BDE8F081802500207CB50546A9B26A4650
:10EE6000074802F09BF8044644B97421684602F052
:10EE7000E7F8044614B9284602F000F820467CBDA5
:10EE8000E42000202DE9F04106460F46144600BF5D
:10EE900025463DB100BF05A240F28D112846FDF781
:10EEA000BAFF00BF00BF0020BDE8F0812E2E5C2E0F
:10EEB0002E5C2E2E5C6D61696E2E63007FB505465B
:10EEC000039502F061F9044600BF26463EB100BF3B
:10EED00029A240F2A7113046FDF79DFF00BF00BFF9
:10EEE00003A800F0BDFB044600BF26463EB100BFAC
:10EEF00021A24FF4D5713046FDF78DFF00BF00BF52
:10EF00000020CDF805008DF809009DF8050020F0DF
:10EF10000100401C8DF805009DF8050020F002005E
:10EF20008DF805009DF8050020F0700030308DF858
:10EF300005009DF8050020F080008DF805000721F0
:10EF40008DF8061010218DF807100F480090012051
:10EF50008DF8040069460D4800F034FD044600BFFA
:10EF600026463EB100BF04A24FF4DC713046FDF7E7
:10EF700052FF00BF00BF7FBD2E2E5C2E2E5C2E2EBA
:10EF80005C6D61696E2E630085EE010080200020BB
:10EF90002DE9F0478EB00446FF200C904FF0000999
:10EFA0004FF0000A00BFFE48007810B90EB0BDE86F
:10EFB000F08700BF00BFFB48006800B9F6E700BF5C
:10EFC0000BA800F041FB054600BF2E463EB100BF36
:10EFD000F54A40F6F1113046FDF71DFF00BF00BFB6
:10EFE00000270025201D09902C20ADF82800FF20C7
:10EFF0008DF82E0000208DF82C000D902088102810
:10F0000013D0A0880DAA0221FFF764FD054665B95B
:10F010000D9800EB4000E54901EB8000C07A8DF8C7
:10F020002E000D98C0B28DF82D00208819287DD0B3
:10F0300008DC10280DD0112879D0132878D0142896
:10F0400077D1C7E01A2875D01E2874D05228F7D17E
:10F05000C0E20DAE324601214FF6FF70FFF73AFDD8
:10F060008046B8F1000F08D10220316801EB410160
:10F07000CE4A02EB8101887201E04FF0040800BF24
:10F080004546002D62D14FF0010911208DF8200076
:10F090000D98C0B28DF82D00A0880D9901EB4101AB
:10F0A000C24A02EB8101088102200D9901EB410166
:10F0B00002EB810188720D9800EB4000114601EBD4
:10F0C0008001A2680A60A2898A80A07B8871E07DA5
:10F0D00000F0010060B1E07DB54901EB500000781F
:10F0E000FF280DD0E07D01EB500000780C9007E088
:10F0F0004FF6FF720CA904F10800FFF781FE0546E8
:10F1000025BBDDE90C0101EB4101A84A02EB8101BD
:10F11000C8720D9800EB4000114601EB8000807A28
:10F1200040F008000D9901EB410105E01AE10EE005
:10F1300099E05EE2E3E156E202EB810188720C980D
:10F14000C0B28DF82E000BA8FEF75EFC52E20D98BF
:10F1500000EB4000954901EB8000807A20F002002E
:10F160000D9901EB4101914A02EB810188720D98E2
:10F1700000EB4000114601EB8000807A00F00800AF
:10F1800008280ED10D9800EB400001EB8000807A3A
:10F1900000F0800080280FD100210BA8FFF77CFD34
:10F1A0000AE09DF82E00FF2806D09DF82E0001F001
:10F1B00065FEFF208DF82E0010200D9901EB410116
:10F1C0007A4A02EB810188724FF0010912208DF812
:10F1D00020000FE20D9800EB4000744901EB800025
:10F1E000C07AFF2824D1228A0CA90020FFF708FE4C
:10F1F0000546EDB9DDE90C0101EB41016B4A02EB7B
:10F200008101C8720D9800EB4000114601EB8000AF
:10F21000807A40F008000D9901EB410102EB810179
:10F2200088720C98C0B28DF82E000BA8FEF7ECFB8C
:10F230000D9800EB40005D4901EB8000C07AFF288B
:10F2400005D00D98C0EBC0005A4901EB800A0D991A
:10F25000C1EBC101584B03EB8102A088002351464A
:10F2600086DF0546C6E113208DF820000D9800EBDF
:10F2700040004E4901EB8000807A40F004000D9977
:10F2800001EB4101494A02EB810188724FF001090B
:10F290000D9800EB4000114601EB8000C07AFF287A
:10F2A00042D10D9800EB400002EB80010CA8FFF763
:10F2B00063FD054665B90C98C0B28DF82E00DDE9F6
:10F2C0000C0101EB4101394A02EB8101C87202E0F5
:10F2D0002F464FF00109002004900D9800EB4000EC
:10F2E000324901EB8000C07AC0EBC000324901EB2B
:10F2F000800105910021069107910D98C0EBC00097
:10F300002C4901EB800000900020019002900390B6
:10F31000A0886B46234A121D00217FDF054615B1E8
:10F320002F464FF000091CE00D9800EB40001F49EC
:10F3300001EB8000807A40F040000D9901EB410123
:10F340001A4A02EB8101887216208DF82000A088ED
:10F3500000231A4685217FDF054615B12F464FF061
:10F36000000947E10F48407A20F001000D4948723A
:10F370000D9800EB40000D4901EB8000807A20F0F1
:10F3800004000D9901EB4101084A02EB81018872EA
:10F3900014208DF820004FF00109207A20B30DE0F1
:10F3A000F020002090260020E8280200842600207B
:10F3B000F120002044260020802500200D9800EB3D
:10F3C0004000114601EB8000807A00F040004028A8
:10F3D00009D00D9901EB410102EB8101C87AFFF7D9
:10F3E0003BFD0646277A89E0607AC0F38000E0B3EF
:10F3F0009DF82E00FF2838D00D9800EB40008C4976
:10F4000001EB8000807A40F008000D9901EB41018A
:10F41000874A02EB81018872607BC0F3400088B1AB
:10F420009DF82E00C0EBC000824901EB8000807E79
:10F4300020F001009DF82E10C1EBC1017D4A02EBC6
:10F44000810188760D9800EB4000794901EB80003E
:10F45000C07AFF2852D00D9800EB400011F8200030
:10F46000022827D09DF82E0000E047E0C0EBC00046
:10F47000704901EB80000D9901EB41016C4A02EBF0
:10F4800081010A6802618A888282897981759DF882
:10F490002E00C0EBC000674901EB8000807E20F0A9
:10F4A00002009DF82E10C1EBC101624A02EB8101FE
:10F4B00088761FE00D98C0EBC0005F4901EB80002B
:10F4C000408A9DF82E10C1EBC1015A4A02EB81011E
:10F4D00008839DF82E00C0EBC000114601EB8000B0
:10F4E000807E20F001009DF82E10C1EBC10102EBDF
:10F4F0008101887601210BA8FFF7CEFB7AE0207A04
:10F500000121B1EB101F43D1207A00F00F00012838
:10F510003ED10D9800EB4000454901EB8000807A18
:10F5200000F00800082833D10D9901EBC101434ACE
:10F5300002EB810101F108001A21FCF7D2FF16202D
:10F540008DF820000D9800EB4000394901EB800058
:10F55000807A40F020000D9901EB4101344A02EB22
:10F56000810188720D9800EB4000114601EB80008C
:10F57000807A40F040000D9901EB410102EB8101DE
:10F5800088722F48407A40F002002D4948721DE0F1
:10F590000D9800EB4000264901EB8000807A40F096
:10F5A00080000D9901EB4101214A02EB8101887233
:10F5B00015208DF820002248807A224A52F8201027
:10F5C0000BA8884705460DB148F2410700274FF0C8
:10F5D00001090FE01A48807A1A4A52F820100BA845
:10F5E0008847074606E013208DF820004FF00109F8
:10F5F00000E000BF00BFB9F1000F17D03A4608A9DC
:10F600000BA8FDF75DFC9DF8200012280ED100BF6D
:10F610000D9800EB4000064901EB8000807A01283C
:10F6200002D00D98FFF77AFA00BF00BF00BFBDE41B
:10F63000842600208025002044260020602600200B
:10F6400090260020A4280200014611B948F20E00BD
:10F650007047FF20087048708870C8700020F7E776
:10F660007FB506461EB948F20E0004B070BD0024F6
:10F6700012E02046002100EB4002344B43F82210F8
:10F6800000EB400203EB8202517200EB400203EBFD
:10F690008202917200BF641C002CEAD0002403E0B7
:10F6A0002046FFF73BFA641C002CF9D0242128489F
:10F6B000FCF717FF002406E0204601F0DFFBFF20E7
:10F6C00024490855641C072CF6D37420ADF80C00AF
:10F6D0000720ADF80E0020480290204902A801F052
:10F6E00015FE054625BB01201D490870307800BB7A
:10F6F00000241BE0A1B26A46184801F04FFC054601
:10F700007DB9C4EBC401174A02EB810000231C221F
:10F71000694601F081FD05463DB1002010490870A1
:10F7200006E000200E49087002E0641C072CE1D3BB
:10F7300009E0BDF80C00BDF80E20504381B2074827
:10F7400001F07EFC054628468FE700009026002049
:10F7500060260020F120002069F70100E42000204D
:10F76000F0200020802500202DE9FF4F91B00F46AA
:10F7700092461D46DDF8789000BF8748006810B9B2
:10F7800015B0BDE8F08F00BFB9F1740F00D9F7E7ED
:10F790004FF0010B0DA8FFF757FF064600BFB0461C
:10F7A000B8F1000F07D000BF7C4A40F2A15140469B
:10F7B000FDF731FB00BF00BF00208DF834008DF84D
:10F7C00038000C95CDF82C90804614E01FFA88F193
:10F7D00008AA734801F0E2FB064656B9082208A9B8
:10F7E0001198FCF789FE20B908F0FF008DF836006B
:10F7F00004E008F10108B8F1070FE7D300BF9DF856
:10F800003600FF2878D0032F0AD1B9F1740F03D145
:10F8100020208DF838009BE040208DF8380097E0DC
:10F820006048281A1C21B0FBF1F4072C1BD20AA84F
:10F830000F90BAF1000F0ED19DF8360001218140E2
:10F84000594A1268114009B1012100E0002111B9A3
:10F850004FF0000B7CE09DF8360002F0A1FE202066
:10F860008DF8380074E05148281A1C21B0FBF1F4DF
:10F87000F4B90AA80F9020208DF83800E0B28DF876
:10F880003500002004904A490591C4EBC400474963
:10F8900001EB800000909DF83600C0EBC0004149AC
:10F8A00001EB80000190CDF830D020200B904FE08C
:10F8B0004048281A2421B0FBF1F4F4B930208DF827
:10F8C0003800E0B28DF8350001208DF8370004EBE8
:10F8D0004400394901EB8000807A00F002000228E0
:10F8E00036D09DF8351001EBC101324A02EB8100A0
:10F8F0002421FCF7F6FD2BE04CE04FF0000B4020FC
:10F900008DF838002D48854203D103274FF0010BB5
:10F910001EE09DF836002A4951F82000A84217D170
:10F920004FF0010B0AA80F9000200EE09DF8361052
:10F9300000EB4002204B03EB8202D27A914203D1CA
:10F94000C1B28DF8351002E0401C0028EED000BF97
:10F95000BBF1010F1ED1032F06D19DF8380040F0F6
:10F9600003008DF838000EE0022F06D19DF8380014
:10F9700040F001008DF8380005E09DF8380040F0B7
:10F9800002008DF838000AA80F9052460EA90DA863
:10F99000FDF796FA00BFF3E690260020E828020063
:10F9A000E420002080250020EC20002044260020B8
:10F9B0009C2600206026002084260020B428020017
:10F9C0006425002010B5024600BF2848007810B911
:10F9D00048F2080010BD00BF12B948F20E00F9E766
:10F9E00011B948F20E00F5E7086810B948F20E00A8
:10F9F000F0E71F48006898BB1D4C0868206020464F
:10FA0000D1F8054044604C7A04720879184CA07211
:10FA10002046007A20F0010415480472007A20F094
:10FA20000200801C124C20722046007A20F0040450
:10FA30000F480472C07920F00100401C0C4CE071AA
:10FA40002046C07920F00200801CE0712046C07979
:10FA500020F004040648C47100201070002302E066
:10FA6000FFE748F204031846B4E70000F020002046
:10FA700090260020014614480078144A12789042DB
:10FA80001DD011480078401C0F4A107010460078B5
:10FA9000022801D1002010700D480B4A127850F84E
:10FAA000220008600B4A086812681044094A106076
:10FAB0001046006820F07F40106001207047002051
:10FAC000086000BFFAE700004C2100204D21002013
:10FAD000442100204021002010B50C48007800F09F
:10FAE000080078B90A480068401C0949086000F01D
:10FAF0002DFC10B9FEF79CFD06E00648007801F0E9
:10FB000041FF01E000F0C8FD10BD00001C210020F5
:10FB10000C210020002100200A48007806280ED180
:10FB20000848001D007800F00F0040B90548083073
:10FB3000007800F0F000302801D10120704700204B
:10FB4000FCE70000E00F00F013480078062820D101
:10FB50001148001D007800F00F00D0B90E480830A1
:10FB6000007800F0F000302801D1012070470A48E9
:10FB70000830007800F0F000402801D10120F5E7BE
:10FB800005480830007800F0F000502801D101202D
:10FB9000ECE70020EAE70000E00F00F00A480078F8
:10FBA00006280ED10848001D007800F00F0040B96B
:10FBB00005480830007800F0F000302801D101201D
:10FBC00070470020FCE70000E00F00F013480078C9
:10FBD000062820D11148001D007800F00F00D0B990
:10FBE0000E480830007800F0F000302801D10120E4
:10FBF00070470A480830007800F0F000402801D132
:10FC00000120F5E705480830007800F0F0005028A2
:10FC100001D10120ECE70020EAE70000E00F00F04E
:10FC20000A48007806280ED10848001D007800F028
:10FC30000F0040B905480830007800F0F000302887
:10FC400001D1012070470020FCE70000E00F00F028
:10FC50000A48007806280ED10848001D007800F0F8
:10FC60000F0040B905480830007800F0F000302857
:10FC700001D1012070470020FCE70000E00F00F0F8
:10FC80000A48007806280ED10848001D007800F0C8
:10FC90000F0040B905480830007800F0F000502807
:10FCA00001D1012070470020FCE70000E00F00F0C8
:10FCB000F0B5034600241FE0124E306806689E42ED
:10FCC00003D90668F61A06601AE006689B1B0668E8
:10FCD0003444002606600B4E35680A4FC6693E6004
:10FCE000C66846B10E1926F07F464660C668866033
:10FCF0001668C661156000BF024800680028DBD1A5
:10FD000000BFF0BD3C21002030B504461088C01C67
:10FD1000984201D90C2030BD022015884855108822
:10FD2000401C10800120158848551088401C108008
:10FD300015884C551088401C10800020EBE738B522
:10FD400000200090684601F013F90446082C02D008
:10FD50000CB1012038BD082C06D1684600F070F8BF
:10FD600004460CB10020F5E7009808B10120F1E746
:10FD70000020EFE710B5044614B1112C08D100E0C3
:10FD80000AE00648006840F008000449086003E003
:10FD90002046FDF7BDF800BF00BF10BD1C210020AC
:10FDA00010B50D480068401C0B490860B0F57A7F1B
:10FDB0000DD00A480078022804D00848007801F0E5
:10FDC000E1FD07E00648007802F020F802E00D208F
:10FDD000FDF79EF810BD000010210020002100203A
:10FDE0000121002010B50A480078012804D002281B
:10FDF00008D0032809D102E001F0A8FF06E0FFF7D0
:10FE00006BFE03E001F0F6FF00E000BF00BF10BD95
:10FE10000021002070B50446204628DF0546FFF784
:10FE2000A9FF70BD2DE9F04104460D461646324645
:10FE30002946204629DF0746FFF79CFFBDE8F081F1
:10FE4000014609B9032070470248406D0860002050
:10FE5000F9E70000502800203EB500BF9DF80000E3
:10FE600020F00F00401C00909DF8000020F0F000F2
:10FE70001030009000BF112216A168467CDF0446B6
:10FE800000BF254635B100BF17A27F212846FCF7E9
:10FE9000C2FF00BF00BF0020019002905020ADF8CB
:10FEA0000400A020ADF806000020ADF808004FF4D3
:10FEB000C870ADF80A0001A87ADF044600BF2546E5
:10FEC00035B100BF08A289212846FCF7A4FF00BF76
:10FED00000BF3EBD4F7572436861726163746572A5
:10FEE00069737469630000002E2E5C2E2E5C2E2E2A
:10FEF0005C6D61696E2E630001460020704702460A
:10FF00000020704702460020704700002DE9F041B4
:10FF100004460027B8460026607800EBC000374949
:10FF200001EB8000406848B3607800EB4000344942
:10FF300001EB8000807A00F0800080281ED160787C
:10FF400000EB400001EB8000807A00F04000402888
:10FF500014D0607800EBC000284901EB800000F16C
:10FF60000807607800EBC00001EB800080881FFA72
:10FF700080F8607800EBC00051F82060617801EBF8
:10FF800041011F4A02EB8101088933464246394646
:10FF9000A9DF05460B2D0CD10126617801EB41014B
:10FFA000174A02EB81010889334642463946A9DFE8
:10FFB00005460DB148F24105012E1BD1617801EBD8
:10FFC00041010F4A02EB810108894FF6FF720C21B3
:10FFD000A7DF054675B143F20200854208D0082D1F
:10FFE00006D0801C854203D0112D01D0002501E0F0
:10FFF00048F241052846BDE8F08100006026002057
:020000040002F8
:100000008426002070B505460C46617801EBC101DD
:100010000E4A02EB810038232422294601F0FCF825
:10002000064686B9607800EBC000084901EB800005
:100030004068401C38B90020617801EBC101034AD7
:1000400002EB81014860304670BD00006026002050
:100050002DE9F04188B007460C4603261A20079088
:10006000617801EB4101324A02EB81010889334694
:1000700007AA6946AADF8046B8F1000F54D161781B
:1000800001EBC1012B4A02EB810101F10800BDF82F
:100090001C206946FCF730FAA0B9607800EB4000FC
:1000A000234901EB8000807A00F0020002283BD057
:1000B000617801EBC1011F4A02EB81002421FCF7AA
:1000C00010FA31E0607800EBC0001A4901EB8000C3
:1000D000406808B1184D00E0184D607800EBC00092
:1000E000144941F82060BDF81C00617801EBC101A2
:1000F000104A02EB81014860617801EBC10102EB1B
:10010000810101F10800BDF81C206946FCF7D0F917
:10011000607800EBC000074A02EB800138232422FC
:100120003846A847804600BF002008B0BDE8F081EF
:100130008426002060260020411502001D140200C4
:1001400070B505462846FFF7E1FE044614B900BF26
:1001500000200446204670BD70B505460E46314667
:100160002846FFF74FFF044614B900BF002004469D
:10017000204670BD70B505460E4631462846FFF74D
:1001800067FF044614B900BF00200446204670BD36
:100190002DE9F04105460F46012000FA05F4184804
:1001A0000068FCF76FFF06460EB1BDE8F081154808
:1001B00000682040E0B9284600F01CFC28B1124835
:1001C000006820431049086004E00F480068A0431D
:1001D0000D4908600B48006820430A490860002266
:1001E0000A48016806480068FCF720FF064604E05C
:1001F00004480068A0430349086000BFD5E7000039
:10020000E0280200302100202C210020282100209D
:1002100010B51648007800F0080018BB00F0C2F8CE
:1002200060B10020124908601048006840F00100E9
:100230000E490860002001F0E9FD15E000F086F8A5
:1002400030B100200A490860022001F0DFFD0BE018
:100250000848006818B1032001F0D8FD04E001F05F
:10026000A9FD01E001F0B6FD10BD00001C21002039
:100270000421002008210020F8B52548007800B9A5
:10028000F8BD2448006808B9012000E000200546B8
:100290002148006808B9012000E00020064600BFA0
:1002A0009DB9684652DF0446052C01D101250BE0BB
:1002B00034B100BF194A93212046FCF7ACFD03E09E
:1002C000144900980968884700BFCEB914480088CF
:1002D000009069461348006861DF0446052C01D18F
:1002E00001260CE034B100BF0C4AB2212046FCF7D5
:1002F00092FD04E00B48006807490968884700BF81
:100300000DB106B100E0CBE700BF00BFB8E70000C9
:100310005C2100206C21002068210020342902008B
:10032000642100206021002001464888064A128886
:10033000904206DB4888044A5288904201DC012042
:1003400070470020FCE70000CC2000202DE9F041A0
:100350001148007800EB80010F48001D00EB81057B
:10036000EF6800F00CFF69883944AA881144491EDF
:10037000B1FBF0F609480068B04206D307480068B0
:10038000B04204D10648006808B9012400E0002406
:100390002046BDE8F08100002C2700200C21002021
:1003A000082100202DE9F0410F48007800EB800182
:1003B0000D48001D00EB8105EE6800F0E0FE698845
:1003C0003144AA881144491EB1FBF0F70748006880
:1003D00028B107480068B84201D1012400E0002498
:1003E0002046BDE8F08100002C27002008210020D5
:1003F0000C210020014601F0030008B901207047DC
:100400000020FCE730B504461088C01C984201D992
:100410000C2030BD0220158848551088401C1080E3
:100420001C20158848551088401C1080012C06D0CF
:10043000022C08D0032C0AD0042C10D10BE0002091
:10044000158848550DE001201588485509E002201F
:100450001588485505E003201588485501E0072018
:10046000D7E700BF1088401C10800020D1E70000B3
:1004700010B504460448007800F0010018B10348A4
:100480000078FDF7BDFC10BD9020002088200020E2
:100490002DE9F0412148D0F80080214806782FE06E
:1004A0002048006800EBC604257825E005EB4501EF
:1004B000606800EBC107681CC5B2A078A84200D1F3
:1004C00000253878022802D0032812D103E078688A
:1004D00001F08AFD0EE007E0104908680021017470
:1004E0000E4AC169116000BF0C4800680028F3D1B2
:1004F00000E000BF00BF00BF6078A842D6D100BFB7
:10050000301EA6F10101CEB2CAD1044800684045B0
:1005100002D00120BDE8F0810020FBE73C21002053
:1005200034210020382100202DE9F04706463B48C1
:10053000D0F800903A48077861E03A48006800EB4C
:10054000C70555E016B13446E66923E02A7802EB88
:100550004202696801EBC2002978491C2970297898
:10056000AA78914201D100212970446801780129BB
:1005700001D1217C01B13BE081686160C168A1606B
:100580000169E1604169A1612749097809B1002148
:10059000616000BF254960680968401A20F07F400B
:1005A0002349884208D221496068096801F076FC35
:1005B000A1680844206010E01C486168006801F0F0
:1005C0006DFC8046A068404504D9A068A0EB0800F7
:1005D000206001E00020206000BF00206060A0607B
:1005E000012020740020E061204601F0C9FC00BF1A
:1005F000002EA7D1287869788842A3D100BF381E81
:10060000A7F10101CFB298D104480068484502D053
:100610000120BDE8F0870020FBE700003C2100201E
:1006200034210020382100205521002040210020C5
:10063000FFFF7F0008B501F0C7FD6846FDF7DEFE4D
:10064000FDF75CF99DF80000FEF738FCFFF704FCAD
:1006500001F05CF9FCF712FBFEF798F9FCF756FD88
:100660000320FCF74DFF044600BF25463DB100BF07
:1006700005A240F20B212846FCF7CDFB00BF00BFCE
:1006800000BF00F05DFCFCE72E2E5C2E2E5C2E2EB3
:100690005C6D61696E2E630010B50548006820F03E
:1006A0000800034908600348007801F06BF910BDA9
:1006B0001C210020002100202DE9F04105460E46B6
:1006C00014469846A888871C2088801C38444045DA
:1006D00002D90C20BDE8F081FE2F01D90C20F9E7EA
:1006E000781C218870542088401C2080FF2021889D
:1006F00070542088401C208022889119288801F09D
:1007000045FF218808442080A88800280DDDA868BE
:1007100008B90720DEE7AA8823889819A968FBF79B
:10072000C7FE2088A988084420800020D2E72DE950
:10073000F84F05460F46144698462878012804D1FC
:10074000687810B90720BDE8F88F2088801C4045E4
:1007500008D82878012807D12088801C69780844A7
:10076000404501D90C20EEE72088A8EB0000801E50
:1007700086B200962188891CC81969467DDF8146AA
:1007800000BFB9F1000F01D04846DCE700BF287870
:10079000022806D1BDF80000B04202DC4FF0090A81
:1007A0000BE04FF0080A2878012805D16878B0429C
:1007B00002DC6878009000E00096BDF80000FE289A
:1007C00001D90C20BFE7BDF80000401C21887854F7
:1007D0002088401C2080208807F800A02088401C2A
:1007E00020802088BDF80010084420800020AAE75F
:1007F0000146002070470246002070470246002054
:100800007047000070B50B4601461A46002907DA0A
:100810005407260E104C01F00F052D1F665503E0FE
:100820005407250E0D4C655400BF00BF00F01F0299
:10083000012191400A4A440942F8241000BF00BF38
:1008400000F01F02012191404209920002F1E022D2
:10085000C2F8001100BF70BD18ED00E000E400E038
:1008600080E200E02DE9F04705460E46284600F0FC
:1008700045FBF8B12846FDF753FE083824490F5CC4
:10088000BC11032C0BD100BF224800680121A940F4
:10089000084008B1032000E00220804605E0012C5A
:1008A00001D1022000E0032080464146284600F0A6
:1008B000F5F82AE0284600F02DFB30B32846FDF776
:1008C0002FFE0446A00000F5807087B22046124932
:1008D00051F8201041F001020F4941F8202000BFDB
:1008E000384600F0F3F87EB12846FDF719FE814640
:1008F000FDF7CEFD8046B8F1000F04D0012101FACA
:1009000004F000F0FDF800BF00BFBDE8F087000074
:100910000427002010050050106500402DE9FC4719
:1009200004460E4617464FF00008204600F0D8FA5D
:1009300010B14FF0080851E0F27839462046FDF733
:10094000AFFD0546681C002845D0B07860B100BFF7
:10095000A10001F1A041D1F8001721F002002149C6
:1009600041F8240000BF0CE096F8019000200090B0
:100970004B46024601460190204600F07DF800BF3C
:1009800000BFF078D0B13078174951F82510174AD8
:100990001140154A42F82510114651F825104FF420
:1009A000F85202EA04224FF4403303EA00431A43A8
:1009B00011430D4A42F8251000BF0EE0A5F10800D2
:1009C0000B49085C317840EA811042B2A5F1080079
:1009D00007490A5401E04FF0040800BF4046BDE853
:1009E000FC8700000007005010650040FFE0FCFF9E
:1009F00004270020014600BF04480068C84000F0FA
:100A0000010008B1012070470020FCE710050050EC
:100A100010B5134890F8540008B1082010BD002408
:100A200004E0204600F086FA601CC4B2202CF8DBFB
:100A3000002404E02046FDF71BFD601CC4B20C2C12
:100A4000F8DB06210846FFF7DDFE4FF0004000F01E
:100A500057F80120024981F854000020DEE7000029
:100A6000B4260020034890F8540008B101207047D4
:100A70000020FCE7B4260020F0B5DDE9054541EA99
:100A8000420646EA830646EA042646EA0547024E3F
:100A900046F82070F0BD000000070050074A52F8E9
:100AA000202022F44033054A42F8203052F820201A
:100AB00042EA0143014A42F82030704700070050E3
:100AC00001460148084470470060004038B50446BC
:100AD0002046FFF7F5FF002101602046FFF7F0FFF9
:100AE0000068009000BF38BD10B504462046FFF7EF
:100AF000E7FF0068012800D110BD0020FCE70000DE
:100B00000149086070470000046300400146D1F8C5
:100B10008004C1F8800470470246505808B1012093
:100B200070470020FCE7002242507047C0F80813CD
:100B300070470246D2F80403084008B1012070470C
:100B40000020FCE70122425070470146D1F88004A2
:100B5000C1F8800470470246505808B10120704720
:100B60000020FCE7002242507047014640F23C5012
:100B70004058704770B505468DB1032D12D1022043
:100B8000FDF7C6F8044600BF264636B100BF07A2EF
:100B9000F6213046FCF73FF900BF00BF03E000F04C
:100BA000BDFE00E000BF00BF70BD00002E2E5C2E19
:100BB0002E5C2E2E5C6D61696E2E630070B505464D
:100BC0002888102802D0112819D113E00720FDF73A
:100BD0009FF8044600BF26463EB100BF09A240F27E
:100BE0000D113046FCF717F900BF00BFA88809496E
:100BF000088005E04FF6FF700649088000E000BF5E
:100C000000BF70BD2E2E5C2E2E5C2E2E5C6D616999
:100C10006E2E63008220002070B50546287878B9D2
:100C20003B210848008876DF044600BF264636B1DF
:100C300000BF05A2A6213046FCF7EDF800BF00BFBB
:100C400070BD0000822000202E2E5C2E2E5C2E2EE9
:100C50005C6D61696E2E630010B504460349A2689D
:100C60000A60E0684860FDF7C9FE10BDD82000208A
:100C700010B50446A088084908800849A2690A609E
:100C8000E06948600020064908700648C08908B934
:100C9000FDF7B4FE10BD0000D6200020D8200020B3
:100CA000D42000202825002070B505464FF6FF709F
:100CB0000949088000200949087009480068FCF7C4
:100CC000E1F9044634B10748806918B105488169E3
:100CD0002046884770BD0000D6200020D420002088
:100CE000802802002825002070B50546AC1D20880C
:100CF0001149C98988421DD1608902281AD100BFD3
:100D000000BF217B627B41EA0221084600F001011D
:100D100011B1FDF773FE0DE008480068FCF7B2F969
:100D2000064636B10448806918B1034881693046E7
:100D3000884700BF70BD00002825002080280200E1
:100D400070B592B00546204B0FCB0DAC0FC44FF4DD
:100D50003B40ADF84400A11C0DA863DF044600BF72
:100D6000264636B100BF19A262213046FCF753F87F
:100D700000BF00BF1C2106A8FBF7B3FB00200590B5
:100D80009DF8160020F00600801C8DF81600142136
:100D90006846FBF7A6FB11A8009005A8019068889B
:100DA00005F10C036A4606A9A2DF044600BF2646E9
:100DB00036B100BF05A28E213046FCF72CF800BFEB
:100DC00000BF002012B070BD242802002E2E5C2E21
:100DD0002E5C2E2E5C6F75725F736572766963652B
:100DE0002E63000070B586B00546174B0FCB01ACE3
:100DF0000FC44FF20D00ADF81400A11C01A863DF71
:100E0000044600BF264636B100BF10A2A2213046DC
:100E1000FCF701F800BF00BF4FF6FF702880AA1C46
:100E200005A90120A0DF044600BF264636B100BF59
:100E300006A2AE213046FBF7EEFF00BF00BF2846FA
:100E4000FFF77EFF06B070BD342802002E2E5C2E08
:100E50002E5C2E2E5C6F75725F73657276696365AA
:100E60002E6300000246002104E0505C08B101201E
:100E70007047491C0629F8D30020F9E710B504464D
:100E8000C4EBC400144901EB80000021401C016147
:100E90008182C4EBC401104A02EB81001021FBF7F0
:100EA00020FBFF20C4EBC4010B4A02EB8101087454
:100EB000C4EBC40102EB810188764FF6FF70C4EBEE
:100EC000C40102EB81010883204601F069FB002088
:100ED000024941F8240010BD80250020642500202F
:100EE000014605484056012202EBE07008B101209E
:100EF00070470020FCE70000E4260020014604487B
:100F00004056082801DB012070470020FCE7000064
:100F1000E4260020014606484056002805DB044828
:100F20004056082801DA012070470020FCE7000045
:100F3000E4260020FF2201490A547047E4260020DD
:100F400070B548DF044600BF25463DB100BF04A28E
:100F500040F2F3112846FBF75EFF00BF00BF70BDF3
:100F60002E2E5C2E2E5C2E2E5C6D61696E2E630023
:100F7000014600BF0748007800F0040008B90820C7
:100F8000704700BF09B90E20FAE7034840780860AF
:100F90000020F5E71C2100202C2700207CB503460B
:100FA00000BF2548007800F0040008B908207CBD87
:100FB00000BF0BB90E20FAE70AB90E20F7E7186850
:100FC000022806D2186800EB40001C4C54F82000A0
:100FD00008B90720EBE7D3E90004CDE90004019844
:100FE0001C6804EB4404154D05EB8404248901FBC3
:100FF00004000190009800EB40002C4604EB8000B8
:101000004068009C04EB440405EB84046489009D63
:1010100005EB4505094E06EB85052D8904FB05000A
:10102000019CA04201D80720C1E7DDE90004C2E924
:1010300000040020BBE700001C210020F82700204E
:101040002DE9F84304460D4600BF4348007800F000
:10105000040010B90820BDE8F88300BF0CB90E20C9
:10106000F9E72068022806D2206800EB40003B49DF
:1010700051F8200008B90720EDE7206800EB400098
:10108000364901EB80004068216801EB4101334A99
:1010900002EB81014989226802EB42022F4B03EBEC
:1010A0008202128901FB02006168884201D8072090
:1010B000D1E76068FFF79EF908B91020CBE7D4E9C3
:1010C000001001EB4101254A02EB81014968401AF9
:1010D000216801EB410102EB81010989B0FBF1F2CA
:1010E00001FB120008B10720B5E7206800EB4000C3
:1010F0001A4901EB8000008995FBF0F100FB1150CB
:1011000000B90DB90720A6E7206800EB400013499D
:1011100001EB80000089216801EB41010F4A02EBDD
:101120008101498900FB01F660684719206800EBDE
:101130004000114601EB8000406800EB060847457F
:1011400001D9072087E700202B4602462146009060
:101150000320FDF7D7FA7EE71C210020F8270020A6
:1011600010B54FF010204469601C20B100F007F862
:10117000B4FBF0F010BD4FF080504069FAE74FF03B
:101180008050006980B2704710B5FDF709FB002060
:1011900019490880FFF7E4FFC41EFFF7F0FF44433E
:1011A0001648046000201649086000BF10E00021C6
:1011B00000EB4002134B43F8221000EB400203EB1C
:1011C0008202118100EB400203EB82025181401C3C
:1011D0000228ECD300200C4908700C4908600C4927
:1011E00008600C4908600A48006840F0040008499B
:1011F0000860002010BD0000F8200020FC20002026
:101200000C210020F82700200021002010210020C0
:101210001C21002014210020F8B507460C46154675
:101220001E4600BF3748007800F0040008B90820C7
:10123000F8BD00BF0CB90E20FAE70FB90E20F7E792
:101240002068022806D2206800EB40002E4951F8A1
:10125000200008B90720EBE7206800EB40002A498E
:1012600001EB80004068216801EB4101264A02EB56
:1012700081014989226802EB4202234B03EB82027F
:10128000128901FB02006168884201D80720CFE77C
:1012900045B1206800EB40001B4901EB800000894C
:1012A000A84201DA0720C3E7A819216801EB410130
:1012B000154A02EB81010989884201DD0720B7E761
:1012C0003846FFF797F838B13046FFF793F818B172
:1012D0006068FFF78FF808B91020A9E760688119E6
:1012E0002A463846FBF7E4F80095206800EB4000FA
:1012F000054951F820C03B46002202212046E04724
:10130000002095E71C210020F82700202DE9F0415E
:1013100004460D4600BF3D48007800F0040010B9B7
:101320000820BDE8F08100BF0CB90E20F9E70DB927
:101330000E20F6E7206808B90E20F2E7FFF71FFF3E
:10134000A188884202DBA088102801DA0720E8E79C
:10135000E08868B1FFF704FF471EFFF710FF47431F
:10136000E088A1882A4A126800FB0120874201D246
:101370000720D6E7207900F0030008B10720D0E766
:1013800024480088022801D10420CAE721480088A7
:1013900028601F48006868601E49098801EB410108
:1013A0001D4A02EB8101686848601A49098801EB0F
:1013B0004101206842F82100A0881649098801EB04
:1013C000410102EB81010881E0881249098801EBA3
:1013D000410102EB81014881FFF7D1FEA188E2883B
:1013E00001FB02077F1EFFF7CAFE97FBF0F6FFF72F
:1013F000C6FE0749096806FB001005490860054854
:101400000088401C0349088000208AE71C21002036
:10141000FC200020F8200020F8270020F8B5044622
:101420000E4615461F4600BF3148007800F0040004
:1014300008B90820F8BD00BF0EB90E20FAE70CB9B4
:101440000E20F7E72068022806D2206800EB400053
:10145000284951F8200008B90720EBE7206800EB85
:101460004000244901EB80004068216801EB410104
:10147000204A02EB81014989226802EB42021D4B9E
:1014800003EB8202128901FB02006168884201D8E5
:101490000720CFE745B1206800EB4000154901EB7C
:1014A00080000089A84201DA0720C3E7E819216813
:1014B00001EB41010F4A02EB81010989884201DDFC
:1014C0000720B7E73046FEF795FF38B13846FEF7FC
:1014D00091FF18B16068FEF78DFF08B91020A9E7E9
:1014E0002B463246214601200097FDF70BF9A1E774
:1014F0001C210020F827002010B504460E48007873
:10150000C0B10D480078042814D0022C02D0032C5E
:101510000ED102E0FEF766FC0BE00848007800F010
:10152000080010B9FEF73CFC01E0FEF75BFC00E0B0
:1015300000BF00BF10BD0000002100201C210020C2
:10154000F8B504460E4615461F4600BF31480078E0
:1015500000F0040008B90820F8BD00BF0EB90E2045
:10156000FAE70CB90E20F7E72068022806D22068B7
:1015700000EB4000284951F8200008B90720EBE7AC
:10158000206800EB4000244901EB8000406821689E
:1015900001EB4101204A02EB81014989226802EBFB
:1015A00042021D4B03EB8202128901FB02006168BB
:1015B000884201D80720CFE745B1206800EB400002
:1015C000154901EB80000089A84201DA0720C3E732
:1015D000E819216801EB41010F4A02EB81010989F9
:1015E000884201DD0720B7E73046FEF703FF38B138
:1015F0003846FEF7FFFE18B16068FEF7FBFE08B93B
:101600001020A9E72B463246214604200097FDF71B
:1016100079F8A1E71C210020F82700200149086083
:101620007047000040150140014800687047000005
:101630000415014010B5044603480460062111203A
:10164000FBF77AF810BD00000815014010B54FF403
:1016500080300A4908600A49C1F804031120FBF7E9
:1016600047F81120FBF750F80120054908602F20AA
:10167000FAF7D0FE01200349087010BD4413014061
:10168000001001405421002010B51120012181409B
:101690000E4A430942F8231000BF4FF480300C4932
:1016A00008600C49C1F80803012048602F20FAF7B0
:1016B000B1FE0120074988600020074908602F20FB
:1016C000FAF7A8FE00200549087010BD80E100E08F
:1016D0004813014000100140402100205421002007
:1016E00010B51048C07D40B94FF484710E48FFF723
:1016F0001AFA00BF0D48006810BD4FF484710A4803
:10170000FFF711FA00BF09480068C0B20549C9686F
:10171000044A527E88540348407E401C0149487662
:1017200000BFE9E70C2700200020004018250040FA
:101730007FB504460D4601208DF800008DF8084065
:101740000195034801684268684690477FBD0000E4
:101750000C27002008B501460448009000988842F4
:1017600001D0002008BD0020FCE700008020002000
:1017700010B501460846202808DA012282402C4B89
:101780001A400AB101220EE000220CE0402809DADA
:10179000A0F12002012303FA02F20AB1012202E0C1
:1017A000002200E0012212B942F2010010BD0A46F7
:1017B000002A06DA1F4B02F00F04241F1B5D5B0991
:1017C00002E01D4B9B5C5B091846082801D30022F0
:1017D00009E028B1012803D0042801D0052801D14F
:1017E000002200E0012212B942F20200DEE71348B3
:1017F000806868B14809114A52F8200001F01F03BF
:1018000001229A4010434A090C4B43F822000CE095
:1018100000BF01F01F02012090404A09920002F12E
:10182000E022C2F8000100BF00BF0020BEE70000B8
:10183000FC06FFBC18ED00E000E400E0A828002052
:1018400030B504461088C01C984201D90C2030BD28
:101850000220158848551088401C108011201588DA
:1018600048551088401C108010880C541088401C6B
:1018700010800020EBE72DE9F04707460E4614469E
:101880009A46B86A10B90720BDE8F0874FF0000803
:1018900036E008EB4801B86A00EB8105A88800F142
:1018A0000209B9F1FE0F01D90C20EDE709F10100A1
:1018B000218870542088401C208016202188705474
:1018C0002088401C208022889119288800F05EFE24
:1018D000218808442080A88800280DDDA86808B960
:1018E0000720D1E7AA8823889819A968FAF7E0FDAC
:1018F0002088A9880844208008F1010000F0FF0832
:1019000097F82C004045C4DC0020BDE710B5024824
:10191000FFF768FA10BD00007421002070B50020A8
:10192000FCF7F6F9044600BF254635B100BF11A209
:10193000DC212846FBF76FFA00BF00BFFCF7E4F894
:10194000044600BF254635B100BF0AA2E021284663
:10195000FBF761FA00BF00BF3CDF044600BF25462D
:1019600035B100BF03A2E4212846FBF754FA00BFBB
:1019700000BF70BD2E2E5C2E2E5C2E2E5C6D61691C
:101980006E2E630010B504460248047000F0F8F8AB
:1019900010BD000000210020014600BF09B90E2043
:1019A000704700BF014801600020F9E7682100206E
:1019B0007CB50446044800900098019001A9204697
:1019C00060DF054628467CBD8020002070B50546B6
:1019D0000E46144614212046FAF783FD012020808C
:1019E000002121610020207326726572607A08B19F
:1019F0000121A172002070BD70B504460D46164647
:101A0000324629462046FBF7F9F970BD2DE9F04131
:101A100080460C4616461F4614B90720BDE8F081E3
:101A2000204600F0030109B9012100E0002109B9B5
:101A30000720F3E709480460094806800948076061
:101A40000949404610DF05460DB12846E6E701206A
:101A5000064908701620FFF78BFEDFE760210020A3
:101A60006421002058210020F91902005C21002087
:101A7000014600BF09B90E20704700BF0148016050
:101A80000020F9E76C2100200146C87808B1072042
:101A900070470020FCE77CB5044601A90020FCF754
:101AA000AFF8054600BF0DB128467CBD00BF6946B2
:101AB0000120FCF7A5F8054600BF0DB12846F4E764
:101AC00000BF9DF8000010B10220207007E09DF8D3
:101AD000040010B10B20207001E0002020700020D5
:101AE000E3E7000010B502480068FEF793F910BD67
:101AF0000C2100202DE9F0411D48006820F0010074
:101B00001B4908601B48007800EB80011948001D44
:101B100000EB8104E568FFF732FBB5FBF0F61648F1
:101B20000660FFF72CFB61882944491EB1FBF0F7E2
:101B3000BE4206D10E48006840F002000C49086021
:101B400005E00B48006820F00200094908600B48D6
:101B5000006840B90648007800F0020018B9022079
:101B600000F054F902E0002000F050F9BDE8F081E7
:101B70001C2100202C2700200C2100200421002003
:101B800010B50C48007830B1012807D0022808D0E1
:101B900003280CD108E000F017F809E000F068F81D
:101BA00006E0FFF7A7FF03E0FFF79CFF00E000BFA0
:101BB00000BF10BD0021002010B502480068FEF7EC
:101BC00029F910BD0C21002010B500200349086040
:101BD00003490860FCF764FD10BD000010210020DF
:101BE0001421002070B5FFF7BBFA461EFFF7C7FAB5
:101BF00006FB00F4FFF7C3FA05490968491E00FB1C
:101C000001F50448214602682846FEF70BF970BD2D
:101C10000C210020042100202DE9F0411248007819
:101C200000EB80011048001D00EB8104E568FFF720
:101C3000A6FA61882944A2881144B1FBF0F200FBA6
:101C40001216FFF78DFAA0F10108FFF798FA08FBCA
:101C5000006761882944A288881804490A683946BF
:101C6000FEF7E0F8BDE8F0812C27002008210020D5
:101C700010B500F031F810BD70B5FFF771FA451ED0
:101C8000FFF77DFA4543FFF77AFAB5FBF0F42046FB
:101C9000FEF7C0F870BD00002DE9F041FFF76FFAC4
:101CA0008408FFF76CFA0949096800FB01F5FFF7A2
:101CB00057FA471EFFF763FA07FB00F6224629464C
:101CC0003046FEF7AFF8BDE8F08100000C2100209F
:101CD00010B50446002010BD70B51748007800EB21
:101CE00080011548001D00EB8104FFF748FA618868
:101CF000884214DAFFF743FA61880D1AFFF73FFABA
:101D00008608A388E2681A4450192269511932469C
:101D1000FEF788F8FFF733FA084908600AE0A5885B
:101D2000E368581963889A082169FEF77BF8608890
:101D30000249086070BD00002C27002014210020FB
:101D400010B50120FFF71EFE10BD000010B50E48B3
:101D5000007800F00800A0B90C48007800EB800182
:101D60000A48001D00EB8104608809490988401A6F
:101D70006080608810B9FCF723FD01E0FFF7ACFF3D
:101D800001E0FEF789FC10BD1C2100202C2700205B
:101D90001421002010B50648007800F0080018B99A
:101DA000012000F033F801E000F014F810BD00004D
